:023CE1003A4C5B
:023CE3003D3B67
:023CE50022F1CA
:023CE700330E9A
:023CE90031C6E2
:023CEB002EACFD
:023CED0030B5F0
:023CEF0039F7A3
:102AA300537461727420747261636B696E67210A77
:102AB3000053746F7020747261636B696E67210ACF
:102AC3000043616E2774204D6F76652E0A002564DE
:102AD3002C2025640A00544D2B004B5436333638D2
:102AE300412D424C452D322E310D0A00446566615D
:102AF300756C7420424C45206E616D652C204E65CB
:102B0300656420557064617465210041542B424D06
:102B130025730D0A004B5436333638412D424C454C
:0D2B23002D504F500041542B435A0D0A0015
:0835AB004104530041045400E7
:10259D009002D9EDF09002D6EBF0A3EAF0A3E9F0AA
:1025AD0090000412073E6034900453E070047F01E4
:1025BD0080027F00900453EFF07F026005123BF91B
:1025CD008003123C0F900453E0600512348C80039D
:1025DD001234D4900453E09004D1F0229002D6E04E
:1025ED00FBA3E0FAA3E0F990000512073E6009E4B1
:1025FD00900364F0FFFE801090009AE06018900345
:10260D00647401F07F007E007DF07C411228A39060
:10261D0004547401F022900454E0600912383AE435
:10262D00900454F0229002D6E0FBA3E0FAA3E0F967
:10263D0090000712073E602F9004DCE070047F01CC
:10264D0080027F009004DCEFF07F02600B121B7E96
:10265D007BFF7A2A79A3800C121C0712383A7BFF74
:10266D007A2A79B40211E2123B1CEF600C7BFF7ADF
:10267D002A79C41211E202383A9004DCE0704B90D2
:10268D0002D6E0FBA3E0FAA3E0F990000212073EA8
:10269D00FF9002DAF090000312073EFE9002DBF08D
:1026AD007BFF7A2A79D1EFFC3395E0900418F0A3E3
:1026BD00CCF0EEFE3395E0A3F0A3CEF01211E29034
:0A26CD0002DAE0FFA3E0FD12217E17
:0126D70022E0
:1027C0009002D974FFF0A3742AF0A374D9F0A3E4A3
:1027D000F0A37403F07B017A007994122C45EF701A
:1027E000699002D974FFF0A3742AF0A374DDF0A3FA
:1027F000E4F0A37411F07B017A007997122C45EF75
:1028000060030228A27BFF7A2A79EF1211E290047A
:102810001874FFF0A3742BF0A3740EF0A374FFF0F0
:10282000A3742BF0A37418F07B017A04795512116C
:10283000DC7B017A047955123C777D647F02121C9F
:10284000907BFF7A2B7928023C77900008E0C394B4
:1028500008404FE49002D5F0900008E024F8FF9083
:1028600002D5E0FED39F503A74942EF582E43400F2
:10287000F583E0B4DD2474952EF582E43400F5830D
:10288000E0B4771674942EF9E43400FA7B017D08E5
:1028900012259D9002D5E02407F09002D5E004F0C7
:0228A00080B600
:0128A2002213
:1031C600900009E0D394004040E014F0703B90007A
:1031D60008E0D39400402D1227C0E49002D4F0906A
:1031E6000008E0FF9002D4E0FEC39F501774942EAF
:1031F600F582E43400F583E0FF123CF19002D4E05E
:1032060004F080DBE4900008F07D027F02121C903F
:0232160080AE88
:103AFB00B5B1C7B0BEE0C0EB3A20252E32662063CD
:103B0B006D0A00BBF1C8A1BEE0C0EBCAA7B0DC0ACE
:013B1B0000A9
:0B35B3004104D1004404D2BF8000009E
:102EAC0090031E1209C000000000123CB09004D127
:102EBC00E070097D287F02121C9080F17B017A035F
:102ECC00791E1226D8EF7BFF70347A3A79FB900387
:102EDC001EE0FCA3E0FDA3E0FEA3E0FF90041812AB
:102EEC0009B41211E290031EE0FCA3E0FDA3E0FE86
:102EFC00A3E0FF9004D21209B412348C80077A3B01
:0E2F0C00790E1211E27D287F02121C90809F28
:102FF200CDA3B3B5A3ACC7B0B7BDD3D0D5CFB0AD19
:10300200CEEF3A20252E326620636D0A00706F7370
:103012002D3E2025640A004368616E67652D3E20BF
:10302200256420D7F3D7AA0A004368616E67652D2D
:103032003E20256420D3D2D7AA0A004368616E6776
:10304200652D3E20256420D6B1D0D00A00000000B4
:0230520000007C
:0435BE004104DC00E8
:1022F10078577C037D017BFF7A30794F7E007F0523
:102301001206FFE490035CF0A3F0A374D8F0A37469
:10231100F0F0123D63122E3B90035CEEF0A3EFF060
:10232100123B1CEF600612383A0223AF9004D1E051
:102331006068E4FFFE7D807CBF9004D2E0F8A3E0FA
:10234100F9A3E0FAA3E0FB120334604EE4FFFE7D43
:10235100A07C419004D2E0F8A3E0F9A3E0FAA3E065
:10236100FB12033450347BFF7A2F79F29004D2E0D0
:10237100FCA3E0FDA3E0FEA3E0FF9004181209B462
:102381001211E212383A7D047F02121C9090035E12
:1023910074D8F0A374F0F002231690035EE0FEA35C
:1023A100E0FF90035CE0B5060FA3E0B5070A7D04EA
:1023B1007F02121C9002231690035CE0FEA3E0FF53
:1023C100A3EEF0A3EFF07BFF7A30790F900418EEC3
:1023D100F0A3EFF01211E2C390035CE064809480FB
:1023E1005016E4900364F0FFFE7DF07C411228A3B7
:1023F1007BFF7A307919803BD390035DE0940090A4
:10240100035CE06480948040199003647401F07F60
:10241100007E007DF07C411228A37BFF7A30792B6E
:1024210080117F007E007DF07C41122F887BFF7A36
:1024310030793D90035CE0FFA3E0900418CFF0A356
:0F244100EFF01211E27D047F02121C90022316AD
:1035EE00766F6C3A20252E326620560A00426174A0
:1035FE007465727920766F6C7461676520697320CB
:10360E00746F6F206C6F772C20706C656173652002
:10361E006368617267652069743A20252E326620D0
:03362E00560A0039
:103B1C00E4FFFE7D287C419004D6E0F8A3E0F9A3F5
:103B2C00E0FAA3E0FB12033450037F01227F002252
:1030B500123D6A1237FA9004D61209B47BFF7A35AD
:1030C50079EE9004D6E0FCA3E0FDA3E0FEA3E0FFCB
:1030D5009004181209B41211E2123B1CEF60207B18
:1030E500FF7A3579FB9004D6E0FCA3E0FDA3E0FE72
:1030F500A3E0FF9004181209B41211E21238B67D4C
:0F310500C87F02121C907DC87F02121C9080A40C
:10002E009003D3EDF09003D27403F07B017A037941
:04003E00D2021CEFDF
:103C51007D80E4FF12002E7D047F0512002E7F027D
:033C6100023C0F13
:103BF900EFB40205D287D2CA22EF7003D28722EF2F
:063C0900B40102D2CA2240
:103C0F00EF14600A14600A2402700AC28722C2CA23
:063C1F0022C287C2CA2286
:0435C2004104DD01E2
:070003005393DF5394DF2249
:103B3C00A285E433FF9004DDE06F6013308505123D
:0F3B4C003D2D8003123878A285E4339004DDF01C
:013B5B002247
:10000E009003D37408F09003D27401F0FB7A037955
:05001E00D2FF021CEFFF
:103A23009003D2741FF0E49003D5F0A304F0E49064
:103A330003D3F0A304F0FB7A0379D21231717F012F
:093A4300123D47E4FDFF02377853
:063D6A0012000E023A23D4
:1037FA007F03122DC3AD07AC06E41203C3E4FBFA40
:10380A007920784012018EE4FBFA79807845120219
:10381A00979003A21209B47F0E7E2D7DC47C40903E
:10382A0003A2E0F8A3E0F9A3E0FAA3E0FB02018E09
:103A95004543484FC0ADB8DFD0C5BAC5B3ACCAB110
:103AA5003A2025642075732CCDCBB3F6B2E2BEE087
:023AB5000A0005
:103CB00053B37F43B48043B10853B2F7C2C7C2B312
:013CC00022E1
:063D5C00752C4BD52CFD77
:013D6200223E
:0B26D800900322EBF0A3EAF0A3E9F06E
:1026E300E4A3F0A3F0D2C7123D5C123D5CC2C72045
:1026F300B320D3900326E0942C900325E09401505B
:1027030011123D5CA3E004F070E5900325E004F0B2
:1027130080DD900325E0FEA3E0FFC3942CEE94013B
:10272300401B7BFF7A3A79957C007D0A12079F90C4
:102733000418EEF0A3EFF01211E27FFF22E49003FE
:1027430025F0A3F030B313123D5C900326E004F0B0
:1027530070F2900325E004F080EA900325E0FCA3E7
:10276300E0FDE41203C37B7B7A14792E783E1201D9
:102773008E900322E0FBA3E0FAA3E0F912096A902A
:102783000322E0FBA3E0FAA3E0F912094AE4FBFA0F
:10279300F97840120334600540037F01229003223D
:1027A300E0FBA3E0FAA3E0F912094AE4FBFA79C8D3
:0C27B300784312033450037F02227F00A1
:0127BF0022F7
:10399800000000000000000000000000000000001F
:1039A800000000000000000000000000000000000F
:1039B80000000000000000000000000000000000FF
:0735C6004404C13F19999A6A
:103BAF005391CF43923053913F4392C05395FC436F
:093BBF0096035395F343960C2282
:063D700043BA80023BAFE4
:0B3B5C00E0FCA3E0FDA3E0FEA3E0FFFF
:103B6700E4FBFAF97840120297E4FBFA79487842C5
:033B770002009DAC
:101F4300900425123B5C9004351209B490042912C5
:101F53003B5C9004391209B490042D123B5C90044D
:101F63003D1209B4900431123B5C9004411209B450
:101F7300E4FFFEFDFC900425E0F8A3E0F9A3E0FAFA
:101F8300A3E0FB12033460047F0180027F0090040E
:101F930045EFF0E4FFFEFDFC900429E0F8A3E0F92F
:101FA300A3E0FAA3E0FB12033460047F0180027F05
:101FB30000900446EFF0E4FFFEFDFC90042DE0F8F2
:101FC300A3E0F9A3E0FAA3E0FB12033460047F016A
:101FD30080027F00900447EFF0E4FFFEFDFC9004D5
:101FE30031E0F8A3E0F9A3E0FAA3E0FB12033460C5
:101FF300047F0180027F00900448EFF0A37460F037
:102003007F007E807DBB7C4690043DE0F8A3E0F931
:10201300A3E0FAA3E0FB12018EE4FBFA79C878424D
:102023001202971203FC90044CEEF0A3EFF090041D
:1020330047E060047F0380027F0090044FEFF07B52
:10204300017A0479497F011215FA9004497470F0FA
:102053007F007E807DBB7C46900441E0F8A3E0F9DD
:10206300A3E0FAA3E0FB12018EE4FBFA79C87842FD
:102073001202971203FC90044CEEF0A3EFF09004CD
:1020830048E060047F0C80027F0090044FEFF07BF8
:10209300017A0479497F021215FA9004497460F0B9
:1020A3007F007E807DBB7C46900435E0F8A3E0F999
:1020B300A3E0FAA3E0FB12018EE4FBFA79C87842AD
:1020C3001202971203FC90044CEEF0A3EFF090047D
:1020D30045E060047F3080027F0090044FEFF07B87
:1020E300017A0479497F031215FA9004497470F058
:1020F3007F007E807DBB7C46900439E0F8A3E0F945
:10210300A3E0FAA3E0FB12018EE4FBFA79C878425C
:102113001202971203FC90044CEEF0A3EFF090042C
:1021230046E060047FC080027F0090044FEFF07BA5
:10213300017A0479497F041215FA90044A745DF018
:10214300A374BFF0E490044EF090045104F09004A3
:1021530050F0FB7A0479497F801215FA90FEB2E0C1
:1021630054FC4401F0E054F34404F0E054CFF0E0B5
:0B217300543FF0E4FBFD7F80022CCC09
:062F88009003601209B481
:102F8E00900360E0FCA3E0FDA3E0FEA3E0FFA3122C
:102F9E0009B4900360E0FCA3E0FDA3E0FEA3E0FF14
:102FAE009003681209B4900360E0FCA3E0FDA3E077
:102FBE00FEA3E0FF90036C1209B4900360E0FCA343
:102FCE00E0FDA3E0FEA3E0FF9003701209B47825A4
:102FDE007C047D017B017A0379647E007F101206EA
:042FEE00FF021F437C
:062D4B0090049D1209B482
:102D510090049DE0FCA3E0FDA3E0FEA3E0FF1203CD
:102D6100AD9004A11209B490049DE0FCA3E0FDA381
:102D7100E0FEA3E0FF1203AD9004A51209B4900494
:102D81009DE0FCA3E0FDA3E0FEA3E0FF1203AD90F4
:102D910004A91209B490049DE0FCA3E0FDA3E0FEA8
:102DA100A3E0FF1203AD9004AD1209B478257C04B1
:102DB1007D017B017A0479A17E007F101206FF025A
:022DC1001F43AE
:06296B009004731209B490
:1029710078787C047D017BFF7A3979987E007F101D
:102981001206FF900477E0FF64016003EF70289066
:102991000473E0FCA3E0FDA3E0FEA3E0FF90047C50
:1029A1001209B4900473E0FCA3E0FDA3E0FEA3E0F0
:1029B100FF9004801209B4900477E0FFF46003EF04
:1029C100702E900473E0FCA3E0FDA3E0FEA3E0FF02
:1029D1001203AD9004781209B4900473E0FCA3E0F3
:1029E100FDA3E0FEA3E0FF1203AD9004841209B43D
:1029F10078257C047D017B017A0479787E007F1043
:062A01001206FF021F4354
:062A07009004881209B4DE
:102A0D00788D7C047D017BFF7A3979A87E007F105B
:102A1D001206FF90048CE0FF64016003EF702890B4
:102A2D000488E0FCA3E0FDA3E0FEA3E0FF90048D8D
:102A3D001209B4900488E0FCA3E0FDA3E0FEA3E03E
:102A4D00FF9004991209B490048CE0FFF46003EF39
:102A5D00702E900488E0FCA3E0FDA3E0FEA3E0FF50
:102A6D001203AD9004911209B4900488E0FCA3E028
:102A7D00FDA3E0FEA3E0FF1203AD9004951209B48F
:102A8D0078257C047D017B017A04798D7E007F1091
:062A9D001206FF021F43B8
:0628A3009003601209B46D
:1028A900900364E0900360B4014FE0FCA3E0FDA352
:1028B900E0FEA3E0FF9003651209B4900360E0FC19
:1028C900A3E0FDA3E0FEA3E0FF1203AD90036912AC
:1028D90009B4900360E0FCA3E0FDA3E0FEA3E0FFE0
:1028E90090036D1209B4900360E0FCA3E0FDA3E03E
:1028F900FEA3E0FF1203AD804DE0FCA3E0FDA3E0E1
:10290900FEA3E0FF1203AD9003651209B4900360C2
:10291900E0FCA3E0FDA3E0FEA3E0FF900369120938
:10292900B4900360E0FCA3E0FDA3E0FEA3E0FF1286
:1029390003AD90036D1209B4900360E0FCA3E0FDC0
:10294900A3E0FEA3E0FF9003711209B478257C048B
:102959007D017B017A0379657E007F101206FF02F3
:022969001F430A
:0B2F1A00E0FCA3E0FDA3E0FEA3E0FF4D
:102F25009002EE1209B49002F2E0FCA3E0FDA3E0EA
:102F3500FEA3E0FF9002EEE0F8A3E0F9A3E0FAA318
:102F4500E0FB12033450059002F2802B9002F6E06C
:102F5500FCA3E0FDA3E0FEA3E0FF9002EEE0F8A3F2
:102F6500E0F9A3E0FAA3E0FB120334600740059003
:102F750002F680039002EEE0FCA3E0FDA3E0FEA3D1
:032F8500E0FF2248
:08217E009002DCEFF0A3EDF08C
:1021860078DE7C027D017BFF7A3979B87E007F108C
:102196001206FF9002DCE0FF3395E0FEA3E0FD337C
:1021A60095E0FCED2FFDEC3EFC1203C39002DE121F
:1021B60009B49002DCE0FF3395E0FEA3E0FD339521
:1021C600E0FCC3ED9FFDEC9EFC1203C39002E212FD
:1021D60009B49002DCE0FF3395E0FEA3E0FD339501
:1021E600E0FCC3ED9FFDEC9EFC1203C39002E612D9
:1021F60009B49002DCE0FF3395E0FEA3E0FD3395E1
:10220600E0FCED2FFDEC3EFC1203C39002EA12093E
:10221600B49002F21209C0C2C800009002F6120978
:10222600C042C800009002DE122F1A9004C1E0F8E6
:10223600A3E0F9A3E0FAA3E0FB12018E9002DE12FE
:1022460009B49002F21209C0C2C800009002F61248
:1022560009C042C800009002E2122F1A9004C1E0A1
:10226600F8A3E0F9A3E0FAA3E0FB12018E9002E2E4
:102276001209B49002F21209C0C2C800009002F618
:102286001209C042C800009002E6122F1A9004C13B
:10229600E0F8A3E0F9A3E0FAA3E0FB12018E9002B6
:1022A600E61209B49002F21209C0C2C800009002F8
:1022B600F61209C042C800009002EA122F1A9004D2
:1022C600C1E0F8A3E0F9A3E0FAA3E0FB12018E90C7
:1022D60002EA1209B478257C047D017B017A027931
:0B22E600DE7E007F101206FF021F4387
:10383A009004151209C0000000009004191209C072
:10384A000000000090041D1209C00000000090044E
:10385A00211209C00000000078257C047D017B014B
:0E386A007A0479157E007F101206FF021F43BC
:0535CD004204DA0000D9
:073D63005393E05394E022AA
:1039C800A280E43312076BA281E43390000112074E
:1039D8007DA282E43390000212077DA283E4339033
:0F39E800000312077DA284E43390000402077DE0
:102E3B00E4FFFEFDFC900360F0A3F030800C24C097
:102E4B00FFEE34FFFE0DBD00010C30810D74E02F41
:102E5B00FF74FF3EFE0DBD00010C3082050DBD0061
:102E6B00010C30830C74202FFFE43EFE0DBD0001DE
:102E7B000C30840C74402FFFE43EFE0DBD00010CA2
:102E8B00ED4C70099004DAE0FEA3E0FF221207B1CB
:102E9B00900360EEF0A3EFF09004DAEEF0A3EFF006
:012EAB002204
:10392C00020B024B029302BA0310037003DC041661
:10393C00049605260574062006E007B8082C092C09
:10394C000A4C0AE80C400DC00F701058125814980D
:08395C0015D018801B801EE04D
:103C25009003D37410F09003D27403F07B017A03F0
:063C350079D2FF021CEF32
:102BBC00AB07AA06E4F9F8FF7E367D6E7C011200A5
:102BCC00469003ADEEF0A3EFF09003A47460F0AD6B
:102BDC0007AC06E41203C3E4FBFAF9783F12018E4A
:102BEC001203FC9003A7EEF0A3EFF09003AA74403D
:102BFC00F07B017A0379A47F081215FA9003AEE0FA
:102C0C0024FFFE9003ADE034FF9003A5F0A3CEF0BB
:102C1C00E49003A9F09003AC04F09003ABF0FB7AC2
:102C2C000379A47F811215FA90FEB6E0543F44401C
:092C3C00F0E4FBFD7F81022CCCC9
:093D530043BA80123C25C2B422DF
:033D7600022BBC61
:043964007F0E7E0054
:083968009003A2EEF0A3EFF0C2
:103970004E7003023CC19003A3E025E0FF9003A238
:10398000E033FE742A2FF58274393EF583E493FE0A
:07399000740193FF123D7664
:01399700220D
:10348C007F0A7E001239687D0A7F02121C90123C62
:10349C00C17D057F02121C907F097E001239687D68
:1034AC000A7F02121C90123CC17D057F02121C90F7
:1034BC007F087E001239687D0A7F02121C90123C34
:0834CC00C17D057F02021C9086
:1034D4007F087E001239687D147F02121C90123C12
:1034E400C17D0A7F02121C907F097E001239687D1B
:1034F400147F02121C90123CC17D0A7F02121C90A0
:103504007F0A7E001239687D147F02121C90123CDF
:08351400C17D0A7F02021C9038
:1038B6001239647D0A7F02121C90123CC17D057F7D
:1038C60002121C901239647D0A7F02121C90123C6F
:1038D600C17D057F02121C901239647D0A7F021297
:0C38E6001C90123CC17D057F02021C906A
:103CC100E49003AAF07B017A0379A47F080215FA34
:10335D004B65792075700A004B657920646F776E27
:10336D000A00537461727420747261636B696E67C5
:10337D00210A0053746F7020747261636B696E67FC
:10338D00210A0041542B544D0D0A00415420546123
:0E339D00736B20436F6D706C657465210A00C0
:1035D2004404C6000000004404CB424800004204F8
:0B35E200CF000A4104CA004104C501EB
:103C3B009003D37403F0E49003D2F07B017A037901
:063C4B00D27F01021CEF14
:103054009003D27440F0A37401F0A31209C00001DC
:10306400C2009003D97401F0E4A3F07B017A0379E0
:10307400D27F01120B247D017F011237B953A23F85
:103084009003D27440F0A37402F0A31209C00001AB
:10309400C2009003D97401F0E4A3F07B017A0379B0
:1030A400D27F02120B247D017F0112363153BAFE06
:0130B40022F9
:0E3D2D007F02123C0F7BFF7A33795D0211E2B8
:103878007F02123BF97BFF7A3379651211E29004DB
:10388800DCE070047F0180027F009004DCEFF07FB1
:1038980002600B121B7E7BFF7A33796F800C121C3F
:0E38A8000712383A7BFF7A3379801211E22240
:103B7A0043BA80123C3B123054123C5112000312D9
:0B3B8A003D6A123D53123D70D2AF2285
:103A4C00123B7A7F01121B7E7F03121B7E7F0412B6
:103A5C001B7E7F05121B7E7F06121B7E7F07121BAF
:063A6C007EE4FF021C07CE
:1039F7007DC87F02121C907DC87F02121C907D64D7
:103A07007F02121C907BFF7A337990123C777BFF01
:0C3A17007A3379981211E27F07021C0735
:0C3D3B00123B3C7D047F02121C9080F4BF
:10330E00900004E0D39400403DE014F0703890003B
:10331E0003E0D39400402AE4900452F0900003E0BE
:10332E00FF900452E0FEC39F501774142EF582E4F2
:10333E003400F583E0FF123D00900452E004F0806B
:0F334E00DBE4900003F07D027F02121C9080B13F
:100B24009003DCEBF0A3EAF0A3E9F09003DBEFF031
:100B340064016003020D02900000F0A3F0A3F0A38F
:100B4400F0A3F09003DFF0A3F09003DFE0FEA3E056
:100B5400FFC39480EE9400501C74542FF5827401EA
:100B64003EF583E4F09003E0E004F070DC9003DFF2
:100B7400E004F080D4E49003DFF0A3F09003DFE01E
:100B8400FEA3E0FFC39480EE9400501C74142FF570
:100B94008274003EF583E4F09003E0E004F070DC3E
:100BA4009003DFE004F080D49003DCE0FBA3E0FAE0
:100BB400A3E0F9120725FFE598543F4FF598EF6439
:100BC400C06008EF64406003020CAD90000212099B
:100BD400847F807E8D7D5B7C001208869003E11209
:100BE40009B4E4FFFE7D01FC9003E1E0F8A3E0F921
:100BF400A3E0FAA3E0FBC312092640037FFF22907F
:100C040003E1E0F8A3E0F9A3E0FAA3E0FBC3E49B6B
:100C1400FFE49AFE740199FDE498FC9003E1120943
:100C2400B49003DCE0FBA3E0FAA3E0F99000011226
:100C3400073EFB64017038C28E538EFE5389BF5346
:100C440089CF438E409003E1E0FCA3E0FDA3E0FEE6
:100C5400A3E0FF78081209378F8D9003E1A3A3A3C3
:100C6400E0F58BC2AB5389BF538FFDD28E8073EBFB
:100C740064027032538EEF438E01538EF7438E0419
:100C84009003E1E0FCA3E0FDA3E0FEA3E0FF78080D
:100C94001209378FD69003E1A3A3A3E0F5D753AF8E
:100CA400FB438E10803C7FFF229003DCE0FBA3E03B
:100CB400FAA3E0F9120725FF701390000812073E0B
:100CC400B40105438E20801A538EDF8015EFB48063
:100CD4001190000812073EB4010543878080035336
:100CE400877F9003DCE0FBA3E0FAA3E0F990000720
:100CF40012073E7004C29C8002D29C7F00229003A3
:100D0400DBE064026003020E4C900005F0A3F0A344
:100D1400F0A3F0A3F09003DFF0A3F09003DFE0FE74
:100D2400A3E0FFC39480EE9400501C74F42FF5826A
:100D340074013EF583E4F09003E0E004F070DC908D
:100D440003DFE004F080D4E49003DFF0A3F0900329
:100D5400DFE0FEA3E0FFC39480EE9400501C749483
:100D64002FF58274003EF583E4F09003E0E004F094
:100D740070DC9003DFE004F080D49003DCE0FBA39C
:100D8400E0FAA3E0F9120725FF64C06008EF6440AD
:100D94006003020E2AEFB4C005439A808003539A7D
:100DA4007F9000021209847F807E8D7D5B7C00121F
:100DB40008869003E11209B4E4FFFE7D01FC900370
:100DC400E1E0F8A3E0F9A3E0FAA3E0FBC3120926EB
:100DD40040037FFF229003E1E0F8A3E0F9A3E0FAE7
:100DE400A3E0FBC3E49BFFE49AFE740199FDE4983D
:100DF400FC9003E11209B4538EEF538EF7438E0433
:100E04009003E1E0FCA3E0FDA3E0FEA3E0FF78088B
:100E14001209378FD69003E1A3A3A3E0F5D753AF0C
:100E2400FB438E1080037FFF229003DCE0FBA3E0F2
:100E3400FAA3E0F990000712073EC454F0FFE59AC4
:100E440054EF4FF59A7F00229003DBE064036003C4
:100E5400020FE090000AF0A3F0A3F0A3F0A3F09037
:100E640003DFF0A3F09003DFE0FEA3E0FFC39440B0
:100E7400EE9400501C74742FF58274023EF583E4E2
:100E8400F09003E0E004F070DC9003DFE004F08015
:100E9400D4E49003DFF0A3F09003DFE0FEA3E0FFCF
:100EA400C39440EE9400501C74142FF58274013ED8
:100EB400F583E4F09003E0E004F070DC9003DFE0FD
:100EC40004F080D49003DCE0FBA3E0FAA3E0F91281
:100ED4000725FF64C06008EF64406003020FBEEFA3
:100EE400B4C00543AC80800353AC7F900002120968
:100EF400847F807E8D7D5B7C001208869003E112E6
:100F040009B4E4FFFE7D01FC9003E1E0F8A3E0F9FD
:100F1400A3E0FAA3E0FBC312092640037FFF22905B
:100F240003E1E0F8A3E0F9A3E0FAA3E0FBC3E49B48
:100F3400FFE49AFE740199FDE498FC9003E1120920
:100F4400B49003DCE0FBA3E0FAA3E0F99000011203
:100F5400073EFB6403702943AC409003E1E0FCA32B
:100F6400E0FDA3E0FEA3E0FF78081209378FD490D8
:100F740003E1A3A3A3E0F5D553D1F043D10A803D07
:100F8400EB64027032538EEF53ACBF538EF7438E33
:100F9400049003E1E0FCA3E0FDA3E0FEA3E0FF78FE
:100FA400081209378FD69003E1A3A3A3E0F5D75322
:100FB400AFFB438E1080067FFF227FFF229003DC6D
:100FC400E0FBA3E0FAA3E0F990000712073EC45443
:100FD400F0FFE5AC54EF4FF5AC7F00229003DBE06B
:100FE4006404600302117490000FF0A3F0A3F0A353
:100FF400F0A3F09003DFF0A3F09003DFE0FEA3E0A2
:10100400FFC39420EE9400501C74B42FF582740234
:101014003EF583E4F09003E0E004F070DC9003DF3D
:10102400E004F080D4E49003DFF0A3F09003DFE069
:10103400FEA3E0FFC39420EE9400501C74D42FF55B
:101044008274013EF583E4F09003E0E004F070DC88
:101054009003DFE004F080D49003DCE0FBA3E0FA2B
:10106400A3E0F9120725FF64C06008EF6440600341
:10107400021152EFB4C005438480800353847F90EF
:1010840000021209847F807E8D7D5B7C00120886BD
:101094009003E11209B4E4FFFE7D01FC9003E1E05A
:1010A400F8A3E0F9A3E0FAA3E0FBC3120926400386
:1010B4007FFF229003E1E0F8A3E0F9A3E0FAA3E0C4
:1010C400FBC3E49BFFE49AFE740199FDE498FC9051
:1010D40003E11209B49003DCE0FBA3E0FAA3E0F916
:1010E40090000112073EFB6404702943844090037E
:1010F400E1E0FCA3E0FDA3E0FEA3E0FF7808120911
:10110400378FD29003E1A3A3A3E0F5D353D10F43C8
:10111400D1A0803DEB64027032538EEF5384BF53F1
:101124008EF7438E049003E1E0FCA3E0FDA3E0FE10
:10113400A3E0FF78081209378FD69003E1A3A3A395
:10114400E0F5D753AFFB438E1080067FFF227FFF6D
:10115400229003DCE0FBA3E0FAA3E0F9900007127D
:10116400073EC454F0FFE58454EF4FF5847F00221A
:021174007FFFFB
:011176002256
:0F3CF1008F999000027401F0900002E070FA22A7
:103C6400120725FF600C123CF1740129F9E43AFAB9
:033C740080EE22BD
:0F3D00008F9B9000077401F0900007E070FA228B
:103C7700120725FF600C123D00740129F9E43AFA96
:033C870080EE22AA
:0F3D0F008FAD90000C7401F090000CE070FA2260
:103C8A00120725FF600C123D0F740129F9E43AFA74
:033C9A0080EE2297
:0F3D1E008F859000117401F0900011E070FA226F
:103C9D00120725FF600C123D1E740129F9E43AFA52
:033CAD0080EE2284
:05002600AE07023CF1F1
:030023000233ABFA
:1033AB00C0E0C083C082C0D075D000C00730982762
:1033BB00C298900003E0C394804002E4F0900003B5
:1033CB00E0FF04F074142FF582E43400F583E599E3
:1033DB00F09000047405F0309907C299900002E454
:0C33EB00F0D007D0D0D082D083D0E032E8
:030043000232186E
:10321800C0E0C083C082C0D075D000C007E59A3036
:10322800E028539AFE900008E0C394804002E4F03E
:10323800900008E0FF04F074942FF582E43400F560
:1032480083E59BF09000097405F0E59A30E1085396
:103258009AFD900007E4F0D007D0D0D082D083D078
:02326800E03252
:03008B0002326AD4
:10326A00C0E0C083C082C0D075D000C007E5AC30D2
:10327A00E02853ACFE90000DE0C394404002E4F015
:10328A0090000DE0FF04F074142FF582E43401F588
:10329A0083E5ADF090000E7405F0E5AC30E108531B
:1032AA00ACFD90000CE4F0D007D0D0D082D083D00F
:0232BA00E03200
:030093000232BC7A
:1032BC00C0E0C083C082C0D075D000C007E58430A8
:1032CC00E0285384FE900012E0C394204002E4F006
:1032DC00900012E0FF04F074D42FF582E43401F571
:1032EC0083E585F09000137405F0E58430E1085314
:1032FC0084FD900011E4F0D007D0D0D082D083D0E0
:02330C00E032AD
:0F3CD1007D607C09ED1D70011C144C70F7DFF154
:013CE00022C1
:101CEF00EFD3940740037FFF22120725FED39403FF
:101CFF0040037FFF22EF7041EE700B90000112073F
:101D0F003EF452935294120725B4010B9000011226
:101D1F00073E4293F45294120725FEB4020A900034
:101D2F000112073E42934294EEB4030D900001124C
:101D3F00073EFEF45293EE4294EF64017043120794
:101D4F0025FE700B90000112073EF452915292EE55
:101D5F00B4010B90000112073E4291F45292120708
:101D6F0025B4020A90000112073E429142921207D7
:101D7F0025B4030D90000112073EFEF45291EE427E
:101D8F0092EF64027043120725FE700B9000011250
:101D9F00073EF452955296EEB4010B9000011207D4
:101DAF003E4295F45296120725B4020A9000011292
:101DBF00073E42954296120725B4030D900001127B
:101DCF00073EFEF45295EE4296EF640370431207FE
:101DDF0025FE700B90000112073EF452B152B2EE85
:101DEF00B4010B90000112073E42B1F452B2120738
:101DFF0025B4020A90000112073E42B142B2120707
:101E0F0025B4030D90000112073EFEF452B1EE42CD
:101E1F00B2EF64047043120725FE700B900001129D
:101E2F00073EF452B352B4EEB4010B900001120707
:101E3F003E42B3F452B4120725B4020A90000112C5
:101E4F00073E42B342B4120725B4030D90000112AE
:101E5F00073EFEF452B3EE42B4EF6405704312072F
:101E6F0025FE700B90000112073EF452C952CAEEC4
:101E7F00B4010B90000112073E42C9F452CA120777
:101E8F0025B4020A90000112073E42C942CA120746
:101E9F0025B4030D90000112073EFEF452C9EE4225
:101EAF00CAEF64067043120725FE700B90000112F3
:101EBF00073EF452CB52CCEEB4010B900001120747
:101ECF003E42CBF452CC120725B4020A9000011205
:101EDF00073E42CB42CC120725B4030D90000112EE
:101EEF00073EFEF452CBEE42CCEF6407704312076D
:101EFF0025FF700B90000112073EF452E152E2EF02
:101F0F00B4010B90000112073E42E1F452E21207B6
:101F1F0025B4020A90000112073E42E142E2120785
:101F2F0025B4030D90000112073EFFF452E1EF427A
:041F3F00E27F00221B
:10367400EFD3940140037FFF22EDD3940340037FF3
:10368400FF22EF7004C2A98002D2A9ED700553B7DE
:10369400FDC2B9EDB4010553B7FDD2B9EDB40205CD
:1036A40043B702C2B9EDB4030543B702D2B97F00F0
:0136B40022F3
:1036B500EFD3940140037FFF22EDD3940340037FB2
:1036C500FF22EF7004C2AB8002D2ABED700553B799
:1036D500F7C2BBEDB4010553B7F7D2BBEDB4020594
:1036E50043B708C2BBEDB4030543B708D2BB7F009F
:0136F50022B2
:103AB700EFD3940140037FFF22EDD3940340037FAC
:103AC700FF22EF25E025E0FFE5AF54FB4FF5AFE41C
:023AD700FF22CC
:103AD900EFD3940140037FFF22EDD3940340037F8A
:103AE900FF22EFC43354E0FFE5AF54DF4FF5AFE4F5
:023AF900FF22AA
:103A7200EFD3940140037FFF22EDD3940340037FF1
:103A8200FF22EFC4333354C0FFE5AF54BF4FF5AF4D
:033A9200E4FF222C
:1036F600EFD3940140037FFF22EDD3940340037F71
:10370600FF22EF7004C2A88002D2A8ED700553B75D
:10371600FEC2B8EDB4010553B7FED2B8EDB402054A
:1037260043B701C2B8EDB4030543B701D2B87F0071
:013736002270
:10373700EFD3940140037FFF22EDD3940340037F2F
:10374700FF22EF7004C2AA8002D2AAED700553B718
:10375700FBC2BAEDB4010553B7FBD2BAEDB402050B
:1037670043B704C2BAEDB4030543B704D2BA7F0026
:01377700222F
:103BE100EFD3940140037FFF22EFC454F0FFE58F30
:083BF10054EF4FF58FE4FF22B1
:103BC800EFD3940140037FFF22EFC43354E0FFE5B5
:093BD8008F54DF4FF58FE4FF224A
:103B9500EFD3940140037FFF22EFC4333354C0FFBA
:0A3BA500E58F54BF4FF58FE4FF22B7
:10377800EFD3940140037FFF22EDD3940340037FEE
:10378800FF22EF7004C2AD8002D2ADED700553B7D1
:10379800DFC2BDEDB4010553B7DFD2BDEDB40205FC
:1037A80043B720C2BDEDB4030543B720D2BD7F00A7
:0137B80022EE
:1033F700EDD3940340037FFF22EF30E10543E6203E
:10340700800353E6DFEF30E00543E610800353E621
:10341700EFED700653B6DF53B5DFEDB4010653B6D3
:10342700DF43B520EDB4020643B62053B5DFEDB454
:0B343700030643B62043B5207F0022AF
:10311400EFD3940140037FFF22EBD3940340037F5A
:10312400FF22EFB40112ED90FE817006E0547FF0AF
:103134008011E04480F0800BEF700890FE83E0542F
:10314400874DF0EB700653B6DF53B5DFEBB40106E1
:1031540053B6DF43B520EBB4020643B62053B5DFC4
:0D316400EBB4030643B62043B5207F0022E4
:1037B900EFD3940140037FFF22EDD3940340037FAD
:1037C900FF22EF7004C2AC8002D2ACED700553B792
:1037D900EFC2BCEDB4010553B7EFD2BCEDB402059D
:1037E90043B710C2BCEDB4030543B710D2BC7F0088
:0137F90022AD
:10363100EFD3940140037FFF22EDD3940340037F36
:10364100FF22E5AF54FE4FF5AFED700653B6FE53C2
:10365100B5FEEDB4010653B6FE43B501EDB4020665
:1036610043B60153B5FEEDB4030643B60143B501BC
:033671007F0022B5
:10344200EFD3940140037FFF22EDD3940340037F27
:10345200FF22EF33333354F8FFE5AF54F74FF5AFA4
:10346200ED700653EEFE53DFFEEDB4010653EEFEA1
:1034720043DF01EDB4020643EE0153DFFEEDB40378
:0A3482000643EE0143DF017F002244
:10351C00EFD3940140037FFF22EDD3940340037F4C
:10352C00FF22EFC454F0FFE5AF54EF4FF5AFED7051
:10353C000653EEFD53DFFDEDB4010653EEFD43DF04
:10354C0002EDB4020643EE0253DFFDEDB403064375
:08355C00EE0243DF027F0022B2
:10356400EFD3940140037FFF22EDD3940340037F04
:10357400FF22EF25E0FFE5AF54FD4FF5AFED7006F8
:1035840053B6FD53B5FDEDB4010653B6FD43B50284
:10359400EDB4020643B60253B5FDEDB4030643B6DB
:0735A4000243B5027F002283
:102CCC00EFD3948140037FFF22EBD3940340037F27
:102CDC00FF22EF247F603204705D90FEC4EDF0EBB8
:102CEC00700653B6FB53B5FBEBB4010653B6FB436E
:102CFC00B504EBB4020643B60453B5FBEB640370A6
:102D0C003B43B60443B504803390FEE4EDF0EB7026
:102D1C000653B6F753B5F7EBB4010653B6F743B504
:102D2C0008EBB4020643B60853B5F7EBB4030D43F6
:0F2D3C00B60843B508800590FEE4EDF07F002255
:1038F200EDD394035029ED700653EEFB53DFFBED3D
:10390200B4010653EEFB43DF04EDB4020643EE04BA
:1039120053DFFBEDB4030B43EE0443DF0480037F6C
:0A392200FF2290FE62EFF07F00220A
:1031710090000112073EFFE5DE54F04FF5DE9000AE
:103181000212073EC43354E0FFE5DE54DF4FF5DEA3
:10319100120725FFD3941F502B90000312073EFE08
:1031A100D39401501F90000412073EFDD3940350A5
:1031B10013EDC43354E0FDEEC433333354804D4F2B
:0531C10090FEA8F022C1
:0C3D4700EFB4010443BC802253BC7F2277
:102DC300EFD3940F4002806BE4F5BDF5BEE5BC5430
:102DD300F044404FF5BC000000000000000000007C
:102DE300E4FDE5BC30E54753BCDFE5DEAFBD30E5D0
:102DF3000DEFFEACBEECFBEBFF9003A6802290032D
:102E0300A6E4F0A3EFF0E5BEC4540FFBE0C4F8540E
:102E13000FC868FF9003A6E0C454F048FEEF4BFFD1
:102E2300EEF0A3EFF09003A6E0FEA3E0FF220DED8A
:072E3300B4FAAF7E107F002E
:012E3A002275
:03002B0002008E42
:04008E0053BCDF324E
:1015FA00AD07ED6401707A90FECCE054FEF0E05441
:10160A00FBF090FEC8E054FCF0120725FF90FEC8DC
:10161A00E0548F4FF090000612073EFF90FECC3048
:10162A00E00DE04401F090FEB1E04401F0800BE0EF
:10163A0054FEF090FEB1E054FEF0EF90FECC30E1A3
:10164A000DE04404F090FEB1E04402F0800BE05457
:10165A00FBF090FEB1E054FDF0900003120812E591
:10166A00F090FED5F090000312081290FED60219EF
:10167A00B4ED6402707A90FECCE054EFF0E054BF0F
:10168A00F090FEC9E054FCF0120725FF90FEC9E075
:10169A00548F4FF090000612073EFF90FECC30E2C6
:1016AA000DE04410F090FEB1E04404F0800BE054E9
:1016BA00EFF090FEB1E054FBF0EF90FECC30E30D7A
:1016CA00E04440F090FEB1E04408F0800BE054BFE3
:1016DA00F090FEB1E054F7F0900003120812E5F022
:1016EA0090FED7F090000312081290FED80219B4A7
:1016FA00ED6403707A90FECDE054FEF0E054FBF006
:10170A0090FECAE054FCF0120725FF90FECAE0548E
:10171A008F4FF090000612073EFF90FECD30E40D89
:10172A00E04401F090FEB1E04410F0800BE054FE7A
:10173A00F090FEB1E054EFF0EF90FECD30E50DE011
:10174A004404F090FEB1E04420F0800BE054FBF03A
:10175A0090FEB1E054DFF0900003120812E5F09019
:10176A00FED9F090000312081290FEDA0219B4EDC5
:10177A006404707A90FECDE054EFF0E054BFF0902C
:10178A00FECBE054FCF0120725FF90FECBE0548F0D
:10179A004FF090000612073EFF90FECD30E60DE0B6
:1017AA004410F090FEB1E04440F0800BE054EFF0BA
:1017BA0090FEB1E054BFF0EF90FECD30E70DE0446B
:1017CA0040F090FEB1E04480F0800BE054BFF0900E
:1017DA00FEB1E0547FF0900003120812E5F090FE8B
:1017EA00DBF090000312081290FEDC0219B4ED64DB
:1017FA0080704F90000512073E90FEDEF0900001C7
:10180A00120812E5F090FED2F09000011208129030
:10181A00FED3F090000812073E90FEDDB40106E008
:10182A004480F08004E0547FF090000712073E9055
:10183A00FEC0B40106E04401F08004E054FEF07FEB
:10184A000022ED6405705690FEECE054FEF090FE26
:10185A00E8E054FCF0120725FF90FEE8E0548F4FB1
:10186A00F090000612073E90FEEC30E00DE04401D5
:10187A00F090FEB5E04401F0800BE054FEF090FEDB
:10188A00B5E054FEF0900003120812E5F090FEF560
:10189A00F090000312081290FEF60219B4ED6406E5
:1018AA00705690FEECE054EFF090FEE9E054FCF044
:1018BA00120725FF90FEE9E0548F4FF090000612C0
:1018CA00073E90FEEC30E20DE04410F090FEB5E0E9
:1018DA004404F0800BE054EFF090FEB5E054FBF0C6
:1018EA00900003120812E5F090FEF7F09000031240
:1018FA00081290FEF80219B4ED6407705590FEEDD7
:10190A00E054FEF090FEEAE054FCF0120725FF9046
:10191A00FEEAE0548F4FF090000612073E90FEED6B
:10192A0030E40DE04401F090FEB5E04410F0800B85
:10193A00E054FEF090FEB5E054EFF0900003120878
:10194A0012E5F090FEF9F090000312081290FEFAE8
:10195A008058ED6408705790FEEDE054EFF090FE69
:10196A00EBE054FCF0120725FF90FEEBE0548F4F9A
:10197A00F090000612073E90FEED30E60DE04410AE
:10198A00F090FEB5E04440F0800BE054EFF090FE9A
:10199A00B5E054BFF0900003120812E5F090FEFB88
:1019AA00F090000312081290FEFCF07F0022ED6412
:1019BA0081704C90000512073E90FEFEF0900001E7
:1019CA00120812FDACF0EC90FEF2F0AF05A3EFF0B6
:1019DA0090000812073E90FEFDB40106E04480F034
:1019EA008004E0547FF090000712073E90FEE0B4B6
:1019FA000106E04401F08004E054FEF07F00227FFB
:021A0A00FF22B9
:10245000EF2480700302250B1470030225502480A2
:10246000B40800400302259C90247675F003A4C5AF
:102470008325F0C5837302248E02249B0224AB02C1
:1024800024BB0224CB0224DB0224EB0224FB120730
:10249000E7FDACF0EC90FED5022596900002120804
:1024A00012FDACF0EC90FED70225969000041208C5
:1024B00012FDACF0EC90FED90225969000061208B1
:1024C00012FDACF0EC90FEDB02259690000812089D
:1024D00012FDACF0EC90FEF502259690000A120871
:1024E00012FDACF0EC90FEF702259690000C12085D
:1024F00012FDACF0EC90FEF902259690000E120849
:1025000012FDACF0EC90FEFB0225961207E7FDAC45
:10251000F0EC90FED5F0AF05A3EFF09000021208AA
:1025200012FDACF0EC90FED7F0AF05A3EFF09000F9
:1025300004120812FDACF0EC90FED9F0AF05A3EF49
:10254000F0900006120812FDACF0EC90FEDB804625
:10255000900008120812FDACF0EC90FEF5F0AF050B
:10256000A3EFF090000A120812FDACF0EC90FEF719
:10257000F0AF05A3EFF090000C120812FDACF0ECE8
:1025800090FEF9F0AF05A3EFF090000E120812FDD7
:0D259000ACF0EC90FEFBF0AF05A3EFF022E5
:03000B00021A11C5
:101A0C00C2AF80FE32121A1085D00B75D008AAE036
:101A1C00C28CE58A24F7F58AE58C34D8F58CD28C07
:101A2C00EC2446F8E6BC070274FFC39581B414009D
:101A3C0040CE7908780E16E608700BC2AFE630E19E
:101A4C00034418F6D2AF08D9EDEA8BD03036012218
:101A5C00D50DFCC0E0C0D0C0F0C083C082C000C0B7
:101A6C0001C002C003C004C005C006C007E50C23BA
:101A7C00240FF87440C2AF46F6D2AFD236E50CFF55
:101A8C0023240FF80F0808BF08047F00780FE630F6
:101A9C00E4F200E50CC39F5020050C7445250CF8AE
:101AAC00E6FDA68108E6AE0CBE070274FFCDF8E891
:101ABC006D60E008E6C0E080F6E50CD39F4027E5BA
:101ACC000C2446F8E6AE0CBE070274FFFD18E6CDFA
:101ADC00F8E5816D6006D0E0F61880F5E50C24453C
:101AEC00C8F6150C80D3750D05E50C23240FF87F73
:101AFC0004C2AFE610E61E30E00310E20C7F0030AB
:051B0C00E10730E304D5
:101B11007F0854F4547CC6D2AF54804207C23622A7
:101B2100F6D2AFD007D006D005D004D003D002D072
:101B310001D000D082D083D0F0D0D0D0E0C2362204
:101B41007845A68174076006FF0876FFDFFB7F08F2
:101B5100E4780EF608F608DFFA780F7630903CE16B
:101B6100740193C0E0E493C0E0750D0543890175EC
:0D1B71008AF0758CD8D28CD2AFD2A9220791
:101B7E00EFD3940740037FFF22740F2F2FF8E62038
:101B8E00E5F4C2AFE64430F6D2AFAE0CEEC39F50D2
:101B9E00210E74452EF8E6F908E618BE070274FF0A
:101BAE00FDED69600909E71919F7090980F31616A1
:101BBE0080DAEED39F400405810581EED39F40224B
:101BCE0074452EF808E6F9EEB50C02A98118060642
:101BDE00E6FDED6960091919E70909F71980F31E89
:101BEE0080D9EF2445F8E604F8EF2F04903CE193FA
:091BFE00F608EF2F93F67F002298
:101C0700EFD3940740037FFF22EF23240FF8E6303A
:101C1700E5F4C2AFE6548CF6D2AFE50CB5070A740B
:101C2700452FF8E6F581021A87502E74462FF8E6FD
:101C3700BF070274FFFD18E6F974452FF8FBE6FCB1
:101C4700E96C6008A805E7F61D1980F4A803A60546
:101C57001FE50CB507E37F002274462FF8E6FD1851
:101C670086010F74452FF8A601088604E50CB50711
:101C770002AC81ED6C60080D09A805E6F780F4E574
:091C87000CB507DE89817F002203
:101C90008FF0E4FFFEE50C23240EF8C2A930F70D07
:101CA0007F08E6600B2DF660325030800730F10679
:101CB000EDF660277E020830F010C2AFE610E7258F
:101CC0000E30E20CD2AF7F048014C2AFE610E715ED
:101CD00054EC4EF6D2AFD2A9021A877F0808EF441F
:0F1CE00083F4C2AF56C6D2AFD2A954804FFF22B1
:10009600020468E86480F8E933E83360110460F02C
:1000A600ED33EC337009E8FCE9FDEAFEEBFF2204D0
:1000B60060DED3EB9FEA9EE99DE8C2E78CF0C2F7CB
:1000C60095F0400CE8CCF8E9CDF9EACEFAEBCFFB97
:1000D60012043385D0F05804700320D5B3E80470B9
:1000E600075002B2D502047292D5EC0460F7E4CC54
:1000F600C0E0C398F8603B94186008400DD0E0FB60
:1001060002044AE4FBFAC9FC8028E830E406E4C9A4
:10011600FBE4CAFCE830E305E4C9CACBFCE85407B3
:100126006010F8C3E913F9EA13FAEB13FBEC13FCBE
:10013600D8F130F52FC3E49CFCEF9BFFEE9AFEED61
:1001460099FDD0E0FBEF4E4D4C701222DB0302040A
:100156006FEC2CFCEF33FFEE33FEED33FDED30E7B5
:10016600EB02044AEF2BFFEE3AFEED39FDD0E0FB41
:1001760050130BBB0003020472ED13FDEE13FEEFEA
:0801860013FFEC13FC02044A14
:10018E00EC4D6011E8497017ED33EC3304600DE46B
:10019E00FCFFFEFD22E933E8330470F80204681216
:1001AE00043358046009E4CC248150062850090217
:1001BE00047228400302046FC0E0EB4A7044B98019
:1001CE0006D0E0FB02045EEF4E701CBD8008EBFF14
:1001DE00EAFEE9FD80EBE98DF0A4FEE5F002027780
:1001EE00E9CDF9EAFEEBFFEF89F0A4FCE5F0CE894C
:1001FE00F0A42EFFE435F0CD89F0A42DFEE435F009
:10020E008067EF4E7005BD80D780C3EF8BF0A4AC36
:10021E00F0EE8BF0A42CFCE435F0F8EF8AF0A42C71
:10022E00E5F038FCE433CB8DF0A42CFCE5F03BF884
:10023E00EE8AF0A42CFCE5F038F8E433CF89F0A474
:10024E002CFCE5F038CF3400CE89F0A42FFFE5F07A
:10025E003EFEE433C98DF0A42EFEE5F039CD8AF0D2
:10026E00A42FFFE5F03EFEE43DFD33D0E0FB50074A
:10027E000BBB000F020472EC2CFCEF33FFEE33FECF
:06028E00ED33FD02044AFD
:10029400020472EC5D046005E8590470030204680A
:1002A400120433580460F6EC4860F2EC7004FDFE6E
:1002B400FF22C860DB2481C85009C398600250063D
:1002C40002046F9850CAF582E9294B4A7005AB8243
:1002D40002045E75F0007C1A7880C3EF9BEE9AED01
:1002E40099400DC3EF9BFFEE9AFEED99FDE842F0B5
:1002F400DC23ACF0D0E0FFD0E0FED0E0FDAB822008
:10030400E7101BEB60BAEC2CFCEF33FFEE33FEED91
:1003140033FD02044AE803F830E705C0F075F00045
:10032400EF2FFFEE33FEED33FD40B830E7C280AA75
:1003340074F8CC6480CCC86480C8F58204604FC370
:10034400EB9FF5F0EA9E42F0E99D42F0E89C45F00F
:10035400603C501DE5825FFFE582D313CB5BCBF499
:100364002B5582FB50280ABA002409B900200880C2
:100374001DE5825BFBE582D313CF5FCFF4C3132F5C
:100384005582FF50090EBE00050DBD00010CC3EBE4
:100394009FF5F0EA9E42F0E99D42F0E89C45F0604A
:0903A40007CC4820E701B3EC226C
:1003AD00ED33EC33600A047003BD8004ECB2E7FC5E
:0103BD00221D
:1003BE0075F020800E75F010800575F0087D007EBA
:1003CE00007F003392D530D503120918EC3340105C
:1003DE00EF33FFEE33FEED33FDEC33FCD5F0ED22C3
:0E03EE00E5F0247EA2D513CC92E7CDCEFF22FF
:1003FC00EDD2E7CD33EC3392D524814006E4FFFEF9
:10040C00FDFC22FCE4CFCECDCC24E0501174FF8057
:10041C00EDC3CC13CCCD13CDCE13CECF13CF0470F4
:07042C00F030D5DE020918D3
:10117700E5402418F582E43404F583E00540229025
:101187000415303403900418E475F0011209F102D4
:101197000725202DE97F2ED22D8018EF540F24909C
:1011A700D43440D4FF30310BEF24BFB41A005003BE
:1011B7002461FFE541600215410544E544700205DD
:1011C7004330340E900415E475F0011209F1EF0273
:1011D700076B0200267403D2348003E4C234F5405F
:1011E700900415120A08E4F541F543F544E541601A
:1011F700077F201211BA80F57542FFC22EC22DC299
:101207002FC230C232C233C235121186FF700D3081
:1012170034057F001211CBAF44AE4322B4255FC221
:10122700D5C231121186FF24D0B40A00501A75F0C6
:101237000A784130D50508B6FF0106C6A426F62070
:10124700D5047002D23080D924CFB41A00EF5004ED
:10125700C2E5D2310214BDD22E80C6D22D80C0D2B3
:101267002F80BCD2D580BAD23280B47F201211BA77
:10127700202F077401B5410040F1121177FF1211B9
:10128700BA0211F4D235D2338095121177FB1211BD
:1012970077FA121177F94A4B700679BB7A157BFFFB
:1012A700202F2EE541602A7E008E8275830012076B
:1012B7003E60060EEE654270F0C2D5EBC0E0EAC0B4
:1012C700E0E9C0E0EE12151ED0E0F9D0E0FAD0E078
:1012D700FB120725FF60AAEBC0E0EAC0E0E9C0E027
:1012E7001211BAD0E02401F9D0E03400FAD0E0FBC3
:1012F700E5420460DCD542D98087D22F80A212153F
:101307000060F7E54270010412047DA942600DE513
:1013170042600914F5421215A8EF60F3EA30E702BC
:10132700F404C3995079EAF425420430E701E40450
:10133700F542800D12150060C1EA054225421204EC
:101347007DEA900444F030E701E4254204D54204E5
:101357002032011412151EE4C0E01215A8900444AF
:10136700E0601320E70714F01211A2802204F0D0E6
:10137700E014C0E07F001211A2E542600712119944
:101387001542800B303203121199D0E00211F4D0CC
:10139700E00480C4121500609EE5420412047D90AB
:1013A7000444EAF0E54220320260010424041215E5
:0113B7001E17
:1013B80074FF04C0E01215A81211A2E542203202FF
:1013C8006003121199D0E0B542E87F451211AC9044
:1013D8000444E07F2B30E7047F2DF404C0E01211B1
:1013E800BAD0E075F00A84C0F01211A3D0E012114F
:1013F800A30211F4791080027908C233C23580083B
:10140800D2D5790A8004790AC2D5E542047002F57A
:1014180042E4FAFDFEFF121177FC7B08202E13121E
:101428001177FD7B10302D0A121177FE121177FF0C
:101438007B20EC3382D592D55013C3E4302D069F20
:10144800FFE49EFEE4202E039DFDE49CFCE4CBF823
:10145800C22EEC700CCFCECDCCE824F8F870F38017
:1014680017C3EF33FFEE33FEED33FDEC33FCEB3304
:10147800FB994002FB0FD8E9EB302E05F8D0E0C409
:1014880048B22EC0E00AEC4D4E4F78207B0070C267
:10149800EAB5420040BCC0E0121520D0F0D0E020F0
:1014A8002E04C4C0E0C4B22EC0F01211A3D0F0D5EF
:1014B800F0EB0211F4120A1112915313FC58126244
:1014C8004C125E4214004F14084414084912774322
:1014D800140E55133B46139B4513054715DB501255
:1014E800662D126A2E128D2B126E23128B2015C4B4
:1014F8002A12264800001285E542B4FF0375420609
:10150800121177FC121177FD121177FE121177FF75
:1015180090043D0204BA790AA2D520301430320969
:10152800B910020404B9080104A2D52033025001FD
:1015380004202F68922FB541005034C0E07F20303E
:1015480030197F30A22F72337232500F121577C2C2
:101558002FC233C232C2357F30800F303203E9C028
:10156800E01211BA303203D0E0F9D0E0B541CC3006
:1015780032177F30B9100C1211BA7F583031077FFB
:10158800788003B908031211BA302F057F2D021194
:10159800BA7F202035F87F2B2033F322922F80CF7B
:1015A8007F00B40700500B243DF582E43404F58332
:1015B800E0FF22286E756C6C2900D22E121177304C
:1015C8002EF8C22E784130D50108F60212262D5089
:1015D8004349581211772403B405004001E49015DB
:1015E800D6931211AB743A1211ABD2307541040282
:0215F80013FCE2
:10043300E9D2E7C933E833F892D5EDD2E7CD33EC0F
:0704430033FC5002B2D52288
:10044A00EC30E7100FBF000C0EBE00080DBD000413
:10045A000BEB6014A2D5EB13FCED92E7FD2274FFBF
:10046A00FCFDFEFF22E480F8A2D574FF13FC7D8018
:03047A00E480EF2C
:10047D00F920E73624F950037907E4F42402FBE56B
:10048D0082158270021583DBF6E024FB501BE960B8
:10049D0014E4F0E582158270021583E004F0B40ACD
:0D04AD0008E4F0D9EE7401F00A22C2D52255
:1004BA00ED33EC3392D5FA602AB4FF33EDC2E77B11
:1004CA00FF60067A0479DFE4227A0479E820D50409
:1004DA007A0479E3224E614E002B494E46002D499B
:1004EA004E4600E47A08F0A3DAFC7B00740722C0C7
:1004FA0083C082ECC0E0EDC0E0EEC0E0EFC0E0EA0D
:10050A0075F010A4CAABF075F04DA42BFBE435F0DE
:10051A00FCEA2410FAEB34C5FBEC34D9FCEDC2E753
:10052A00FF75F056A4F42411C5F0F434C58FF0A475
:10053A002AE5F03BE43CF020E7141205EFD0E0FF97
:10054A00D0E0FED0E0FDD0E0FC1202978014F40463
:10055A001205EFD0E0FFD0E0FED0E0FDD0E0FC12C3
:10056A00018ED082D083E0FAEDD2E7CD33EC33248A
:10057A0082FBE4C3CF33CFCE33CECD33CD33DBF3DF
:10058A007B0775F00A846004F0A31B0AE5F0F0A368
:10059A008FF0740AA4FFACF08EF0740AA42CFEAC9F
:1005AA00F050010C8DF0740AA42CFDE435F0F0A390
:0505BA00DBDE740722E6
:1005BF003F8000004120000042C80000447A000044
:1005CF00461C400047C35000497424004B189680C6
:1005DF004CBEBC205A0E1BCA6753C21C749DC5AEBD
:1005EF00FB60065407601C232312061DEB54386072
:1005FF000912060912061812018EECF8EDF9EEFA3F
:10060F00EFCB22EB12061880F1543803241C90050F
:10061F00BFFE93FC0EEE93FD0EEE930ECE93FF22D4
:03000000022B30A0
:0C2B3000787FE4F6D8FD75814C022B770D
:10062F00E709F608DFFA8046E709F208DFFA803EAD
:10063F0088828C83E709F0A3DFFA8032E309F6089A
:10064F00DFFA8078E309F208DFFA807088828C8302
:10065F00E309F0A3DFFA806489828A83E0A3F608B6
:10066F00DFFA805889828A83E0A3F208DFFA804C90
:10067F0080D280FA80C680D4806980F28033801067
:10068F0080A680EA809A80A880DA80E280CA8033D0
:10069F0089828A83ECFAE493A3C8C582C8CCC58348
:1006AF00CCF0A3C8C582C8CCC583CCDFE9DEE78018
:1006BF000D89828A83E493A3F608DFF9ECFAA9F097
:1006CF00EDFB2289828A83ECFAE0A3C8C582C8CCED
:1006DF00C583CCF0A3C8C582C8CCC583CCDFEADE06
:1006EF00E880DB89828A83E493A3F208DFF980CC68
:1006FF0088F0EF60010E4E60C388F0ED2402B40461
:10070F000050B9F582EB2402B4040050AF23234507
:06071F00822390067F73A7
:10072500BB010689828A83E0225002E722BBFE02D2
:09073500E32289828A83E4932205
:10073E00BB010CE58229F582E5833AF583E0225070
:10074E0006E92582F8E622BBFE06E92582F8E222BA
:0D075E00E58229F582E5833AF583E49322D4
:10076B00BB010689828A83F0225002F722BBFE016D
:02077B00F32267
:10077D00F8BB010DE58229F582E5833AF583E8F0B2
:10078D00225006E92582C8F622BBFE05E92582C85E
:02079D00F22246
:10079F00EF8DF0A4A8F0CF8CF0A428CE8DF0A42E6E
:0207AF00FE2228
:1007B100C2D5EC30E709B2D5E4C39DFDE49CFCEE63
:1007C10030E715B2D5E4C39FFFE49EFE120A37C39A
:1007D100E49DFDE49CFC8003120A3730D507C3E495
:0607E1009FFFE49EFE22D2
:1007E700BB010A89828A83E0F5F0A3E022500687DD
:1007F700F009E71922BBFE07E3F5F009E31922899F
:0B080700828A83E493F5F074019322D1
:10081200BB0110E58229F582E5833AF583E0F5F024
:10082200A3E0225009E92582F886F008E622BBFE01
:100832000AE92582F8E2F5F008E222E5832AF58347
:08084200E993F5F0A3E993220C
:10084A0075F008758200EF2FFFEE33FECD33CDCC65
:10085A0033CCC58233C5829BED9AEC99E5829840E8
:10086A000CF582EE9BFEED9AFDEC99FC0FD5F0D6C5
:10087A00E4CEFBE4CDFAE4CCF9A88222B800C1B9EF
:10088A000059BA002DEC8BF084CFCECDFCE5F0CB2D
:10089A00F97818EF2FFFEE33FEED33FDEC33FCEB66
:1008AA0033FB10D703994004EB99FB0FD8E5E4F921
:1008BA00FA227818EF2FFFEE33FEED33FDEC33FC0E
:1008CA00C933C910D7059BE99A4007EC9BFCE99A02
:1008DA00F90FD8E0E4C9FAE4CCFB2275F010EF2F47
:1008EA00FFEE33FEED33FDCC33CCC833C810D70747
:1008FA009BEC9AE899400AED9BFDEC9AFCE899F882
:0E090A000FD5F0DAE4CDFBE4CCFAE4C8F92214
:10004600C2D5E830E70FB2D5E4C39BFBE49AFAE4E5
:1000560099F9E498F8EC30E717B2D512007C12084B
:1000660086E4C39BFBE49AFAE499F9E498F88003E2
:1000760012088630D50DE4C39FFFE49EFEE49DFD85
:04008600E49CFC22D8
:0E091800C3E49FFFE49EFEE49DFDE49CFC22F0
:10092600EB9FF5F0EA9E42F0E99D42F0E89C45F027
:01093600229E
:10093700E8600FECC313FCED13FDEE13FEEF13FF9E
:03094700D8F122C2
:10094A00BB010789828A83020AAE5005E9F8020AC6
:10095A00A2BBFE05E9F8020ABA89828A83020AC69C
:10096A00BB010789828A830209B45005E9F8020BA0
:0A097A000CBBFE05E9F8020B182281
:10098400BB010DE58229F582E5833AF583020AE38A
:100994005007E92582F8020AD6BBFE07E92582F84A
:1009A400020AEFE58229F582E5833AF583020AFC1F
:0C09B400ECF0A3EDF0A3EEF0A3EFF022B6
:1009C000A8828583F0D083D0821209D71209D7126A
:1009D00009D71209D7E473E493A3C583C5F0C5838F
:1009E000C8C582C8F0A3C583C5F0C583C8C582C881
:0109F00022E4
:1009F100F8E0FBA3A3E0F925F0F0E582158270028F
:070A01001583E0FA38F02232
:090A0800EBF0A3EAF0A3E9F022EF
:100A1100D083D082F8E4937012740193700DA3A374
:100A210093F8740193F5828883E473740293686088
:060A3100EFA3A3A380DF88
:102C45009002D6EBF0A3EAF0A3E9F09002D9E0FBFD
:102C5500A3E0FAA3E0F9120725FE9002D6E0FBA354
:102C6500E0FAA3E0F9120725FF6E702AEF600E90D7
:102C750002DC74FFF5F0120A8C45F070037F002228
:102C85009002D7E475F001120A8C9002DAE475F02F
:102C950001120A8C80B59002D6E0FBA3E0FAA3E00E
:102CA500F9120725FDD3EE6480F8ED6480984003A2
:102CB5007F01229002D9E0FBA3E0FAA3E0F9120715
:072CC50025FFC3ED9FFF2274
:102B3C00021B41E493A3F8E493A34003F68001F253
:102B4C0008DFF48029E493A3F85407240CC8C3339A
:102B5C00C4540F4420C8834004F456800146F6DF69
:102B6C00E4800B01020408102040809035ABE47E19
:102B7C00019360BCA3FF543F30E509541FFEE4935E
:102B8C00A360010ECF54C025E060A840B8E493A325
:102B9C00FAE493A3F8E493A3C8C582C8CAC583CA50
:102BAC00F0A3C8C582C8CAC583CADFE9DEE780BE08
:0135ED0000DD
:100A3700BC000BBE0029EF8DF084FFADF022E4CCA3
:100A4700F875F008EF2FFFEE33FEEC33FCEE9DEC6C
:100A5700984005FCEE9DFE0FD5F0E9E4CEFD22EDB2
:100A6700F8F5F0EE8420D21CFEADF075F008EF2FFC
:100A7700FFED33FD4007985006D5F0F222C398FDED
:050A87000FD5F0EA228A
:100A8C00C5F0F8A3E028F0C5F0F8E58215827002F5
:060A9C001583E038F02292
:0C0AA200E6FC08E6FD08E6FE08E6FF2280
:0C0AAE00E0FCA3E0FDA3E0FEA3E0FF22BB
:0C0ABA00E2FC08E2FD08E2FE08E2FF2278
:100AC600E493FC740193FD740293FE740393FF2276
:0D0AD600E6FB08E6F908E6FA08E6CBF82290
:0C0AE300E0F8A3E0F9A3E0FAA3E0FB2296
:0D0AEF00E2FB08E2F908E2FA08E2CBF82287
:100AFC00E493F8740193F9740293FA740393FB2250
:0C0B0C00ECF608EDF608EEF608EFF62215
:0C0B1800ECF208EDF208EEF208EFF22219
:00000001FF
